:100000000C942A000C9447000C9447000C94470071
:100010000C9447000C9447000C9447000C94470044
:100020000C9447000C9447000C9447000C94470034
:100030000C9447000C9447000C9447000C94470024
:100040000C9447000C9447000C9447000C94470014
:100050000C94470011241FBECFE5D8E0DEBFCDBF12
:1000600011E0A0E6B0E0E8E9F4E302C005900D92EB
:10007000AA39B107D9F711E0AAE9B1E001C01D9290
:10008000A63CB107E1F70E94BA140C944A1A0C94EA
:100090000000EF92FF920F931F937B018C0120E0F1
:1000A00030E040E05FE40E94250488238CF0C80122
:1000B000B70120E030E040E05FE40E94C1010E940F
:1000C000E3049B01AC01205030404040504806C042
:1000D000C801B7010E94E3049B01AC01B901CA0148
:1000E0001F910F91FF90EF900895A0E0B0E0EBE733
:1000F000F0E00C94131ADC012B01FA019C91923070
:1001000008F439C1EB018881823008F433C194309E
:1001100069F4843009F02FC111969C91119789815F
:10012000981709F428C1A2E8B0E025C1843009F489
:1001300021C18230A9F4923009F01DC19A01AD01AC
:1001400088E0EA010990AE01E90109929E0181501F
:10015000C1F7E201898111969C918923818308C1AD
:10016000923009F407C112962D903C901397EB0141
:100170008A819B811496AD90BD90CD90DC901797AD
:10018000EC80FD800E811F819101281B390BB90184
:1001900037FF04C066277727621B730B6032710537
:1001A0000CF061C0121613066CF537014801062EDB
:1001B00004C096948794779467940A94D2F721E0C8
:1001C00030E040E050E004C0220F331F441F551FB1
:1001D0006A95D2F721503040404050402E213F21B7
:1001E00040235123211531054105510521F021E01E
:1001F00030E040E050E079018A01E628F72808293C
:1002000019293CC0232BD1F1260E371E350146019A
:10021000062E04C096948794779467940A94D2F734
:1002200021E030E040E050E004C0220F331F441FC3
:10023000551F6A95D2F721503040404050402A2146
:100240003B214C215D21211531054105510521F04E
:1002500021E030E040E050E059016A01A628B728CB
:10026000C828D9280BC0821593052CF01C01AA249C
:10027000BB24650103C0EE24FF24870111969C91E5
:10028000D20111968C91981709F445C0992339F041
:10029000A80197012A193B094C095D0906C0A6016E
:1002A00095012E193F09400B510B57FD08C01182D3
:1002B0003382228224833583468357831DC081E0A5
:1002C00081833382228288279927DC01821B930B4A
:1002D000A40BB50B84839583A683B7830DC0220F2F
:1002E000331F441F551F24833583468357838281E0
:1002F000938101979383828324813581468157813D
:10030000DA01C9010197A109B1098F5F9F4FAF4F72
:10031000BF4328F30BC0918333822282EA0CFB1C7B
:100320000C1D1D1DE482F5820683178383E0808304
:10033000248135814681578157FF1AC0C901AA27F8
:1003400097FDA095BA2F81709070A070B0705695EF
:10035000479537952795822B932BA42BB52B848318
:100360009583A683B7838281938101969383828349
:10037000DF0101C0D201CD01CDB7DEB7E2E10C94BF
:100380002F1AA0E2B0E0E7ECF1E00C941F1A6983A9
:100390007A838B839C832D833E834F835887E9E048
:1003A000EE2EF12CEC0EFD1ECE010196B7010E943F
:1003B000D4068E010F5E1F4FCE010596B8010E9434
:1003C000D4068A8991E089278A8BC701B801AE01DA
:1003D000475E5F4F0E9475000E94FF05A096E6E011
:1003E0000C943B1AA0E2B0E0E8EFF1E00C941F1A85
:1003F00069837A838B839C832D833E834F835887C5
:10040000F9E0EF2EF12CEC0EFD1ECE010196B701A6
:100410000E94D4068E010F5E1F4FCE010596B801D3
:100420000E94D406C701B801AE01475E5F4F0E942B
:1004300075000E94FF05A096E6E00C943B1AA0E22E
:10044000B0E0E5E2F2E00C94131A69837A838B83BF
:100450009C832D833E834F835887CE010196BE0136
:10046000675F7F4F0E94D406CE010596BE016F5E86
:100470007F4F0E94D4069985923088F08989823016
:10048000C8F0943019F4823051F404C0843029F457
:10049000923081F482E890E0C6C0923049F420E0C6
:1004A0009A858A89981321E02A87CE010996BBC0D4
:1004B000823049F420E09A858A89981321E02A8BBA
:1004C000CE014196B0C02D843E844F8458886D88FB
:1004D0007E888F88988CEE24FF248701AA24BB2471
:1004E000650140E050E060E070E0E0E0F0E0C10174
:1004F00081709070892BE9F0E60CF71C081D191D1E
:100500009A01AB012A0D3B1D4C1D5D1D80E090E062
:10051000A0E0B0E0E614F7040805190520F481E036
:1005200090E0A0E0B0E0BA01A901480F591F6A1F8E
:100530007B1FAA0CBB1CCC1CDD1C97FE08C081E0F5
:1005400090E0A0E0B0E0A82AB92ACA2ADB2A3196B6
:10055000E032F10549F0660C771C881C991C569412
:10056000479437942794C3CFFA85EA892B893C892D
:100570008B859C85280F391F2E5F3F4F17C0CA01FE
:1005800081709070892B61F016950795F794E79428
:1005900080E090E0A0E0B0E8E82AF92A0A2B1B2BC3
:1005A00076956795579547952F5F3F4F77FDE7CF36
:1005B0000CC0440F551F661F771F17FD4160EE0CDE
:1005C000FF1C001F111F21503040403090E05907A0
:1005D00090E0690790E4790760F32B8F3C8FDB0193
:1005E000CA018F779070A070B07080349105A1051A
:1005F000B10561F447FD0AC0E114F10401051105DC
:1006000029F0405C5F4F6F4F7F4F40781A8EFE1786
:1006100011F081E08A8F4D8F5E8F6F8F78A383E01A
:10062000898FCE0149960E94FF05A096E2E10C94C5
:100630002F1AA8E1B0E0EFE1F3E00C941B1A6983F4
:100640007A838B839C832D833E834F835887B9E0C5
:10065000EB2EF12CEC0EFD1ECE010196B7010E948F
:10066000D4068E010F5E1F4FCE010596B8010E9481
:10067000D4062985223008F47EC03989323010F43E
:10068000B8017CC08A859A8989278A87243011F02D
:10069000223031F4231709F06EC062E870E06EC0BA
:1006A000343039F41D861E861F86188A1C861B86E8
:1006B00004C0323021F484E08987B7015FC02B8504
:1006C0003C858B899C89281B390B3C872B87ED84C3
:1006D000FE840F851889AD88BE88CF88D88CEA142F
:1006E000FB040C051D0540F4EE0CFF1C001F111F40
:1006F000215030403C872B8720E030E040E050E044
:1007000080E090E0A0E0B0E460E070E0EA14FB0478
:100710000C051D0540F0282B392B4A2B5B2BEA18C2
:10072000FB080C091D09B695A79597958795EE0CC2
:10073000FF1C001F111F6F5F7F4F6F31710531F775
:10074000DA01C9018F779070A070B0708034910584
:10075000A105B10561F427FD0AC0E114F10401050A
:10076000110529F0205C3F4F4F4F5F4F20782D87B8
:100770003E874F87588BBE01675F7F4FCB010E943A
:10078000FF056896EAE00C94371AA8E1B0E0EBECBC
:10079000F3E00C941F1A69837A838B839C832D83E7
:1007A0003E834F83588789E0E82EF12CEC0EFD1E26
:1007B000CE010196B7010E94D4068E010F5E1F4F35
:1007C000CE010596B8010E94D4068985823040F09A
:1007D0008989823028F0C701B8010E944C0701C006
:1007E00081E06896E6E00C943B1AA8E1B0E0EBEFFC
:1007F000F3E00C941F1A69837A838B839C832D8387
:100800003E834F83588789E0E82EF12CEC0EFD1EC5
:10081000CE010196B7010E94D4068E010F5E1F4FD4
:10082000CE010596B8010E94D4068985823040F039
:100830008989823028F0C701B8010E944C0701C0A5
:100840008FEF6896E6E00C943B1AA8E1B0E0EBE28B
:10085000F4E00C941F1A69837A838B839C832D8325
:100860003E834F83588789E0E82EF12CEC0EFD1E65
:10087000CE010196B7010E94D4068E010F5E1F4F74
:10088000CE010596B8010E94D4068985823040F0D9
:100890008989823028F0C701B8010E944C0701C045
:1008A0008FEF6896E6E00C943B1AA8E1B0E0EBE528
:1008B000F4E00C941F1A69837A838B839C832D83C5
:1008C0003E834F83588789E0E82EF12CEC0EFD1E05
:1008D000CE010196B7010E94D4068E010F5E1F4F14
:1008E000CE010596B8010E94D4068985823040F079
:1008F0008989823028F0C701B8010E944C0701C0E5
:1009000081E06896E6E00C943B1AA8E0B0E0EBE8E2
:10091000F4E00C941C1A9B01AC0183E08983DA019A
:10092000C9018827B7FD83959927AA27BB27B82E29
:10093000211531054105510519F482E089833AC03A
:100940008823A9F0203080E0380780E0480780E85D
:10095000580729F460E070E080E09FEC30C0EE249E
:10096000FF248701E21AF30A040B150B02C0790178
:100970008A018EE1C82ED12CDC82CB82ED82FE82F0
:100980000F831887C801B7010E94B0050197181698
:10099000190684F4082E04C0EE0CFF1C001F111F62
:1009A0000A94D2F7ED82FE820F831887C81AD90AFB
:1009B000DC82CB82BA82CE0101960E94FF05289686
:1009C000E9E00C94381AACE0B0E0E9EEF4E00C9405
:1009D000231A69837A838B839C83CE010196BE019F
:1009E0006B5F7F4F0E94D4068D81823061F182302F
:1009F00050F1843021F48E81882351F12EC02F8153
:100A0000388537FD20C06E812F3131051CF06623FB
:100A1000F9F023C08EE190E0821B930B29853A8583
:100A20004B855C8504C056954795379527958A95E3
:100A3000D2F76623B1F050954095309521953F4F00
:100A40004F4F5F4F0EC020E030E040E050E009C063
:100A50002FEF3FEF4FEF5FE704C020E030E040E0D2
:100A600050E8B901CA012C96E2E00C943F1AA8E0C4
:100A7000B0E0EDE3F5E00C941B1A7B018C016115ED
:100A800071058105910519F482E0898360C083E0D6
:100A900089838EE1C82ED12CDC82CB82ED82FE824E
:100AA0000F831887C801B7010E94B005FC01319778
:100AB000F7FF3BC0222733272E1B3F0B570168014E
:100AC000022E04C0D694C794B794A7940A94D2F780
:100AD00040E050E060E070E081E090E0A0E0B0E055
:100AE00004C0880F991FAA1FBB1F2A95D2F7019730
:100AF000A109B1098E219F21A023B1230097A1054F
:100B0000B10521F041E050E060E070E04A295B2946
:100B10006C297D294D835E836F8378878EE190E019
:100B20008E1B9F0B9C838B8312C0309781F00E2EFF
:100B300004C0EE0CFF1C001F111F0A94D2F7ED82B7
:100B4000FE820F831887CE1ADF0ADC82CB821A82DC
:100B5000CE0101960E94FF052896EAE00C94371A10
:100B6000EF92FF920F931F937B018C0180E0E816B8
:100B700080E0F80681E0080780E0180788F48FEF2E
:100B8000E816F1040105110531F028F088E090E045
:100B9000A0E0B0E017C080E090E0A0E0B0E012C0BC
:100BA00080E0E81680E0F80680E0080781E018079A
:100BB00028F088E190E0A0E0B0E004C080E190E09F
:100BC000A0E0B0E020E230E040E050E0281B390B2C
:100BD0004A0B5B0B04C016950795F794E7948A952A
:100BE000D2F7F701E657FF4F8081281B31094109F1
:100BF0005109C9011F910F91FF90EF900895DF9265
:100C0000EF92FF920F931F93FC01E480F580068121
:100C10001781D1808081823048F480E090E0A0E1AB
:100C2000B0E0E82AF92A0A2B1B2BA5C0843009F46E
:100C30009FC0823021F4EE24FF24870105C0E11417
:100C4000F1040105110519F4E0E0F0E096C06281BD
:100C500073819FEF623879070CF05BC022E83FEFA9
:100C6000261B370B2A3131052CF020E030E040E024
:100C700050E02AC0B801A701022E04C076956795FE
:100C8000579547950A94D2F781E090E0A0E0B0E054
:100C900004C0880F991FAA1FBB1F2A95D2F701977E
:100CA000A109B1098E219F21A023B1230097A1059D
:100CB000B10521F081E090E0A0E0B0E09A01AB0145
:100CC000282B392B4A2B5B2BDA01C9018F779070C7
:100CD000A070B07080349105A105B10539F427FFEB
:100CE00009C0205C3F4F4F4F5F4F04C0215C3F4F16
:100CF0004F4F5F4FE0E0F0E02030A0E03A07A0E087
:100D00004A07A0E45A0710F0E1E0F0E079018A0117
:100D100027C06038710564F5FB01E158FF4FD80129
:100D2000C7018F779070A070B07080349105A105D5
:100D3000B10539F4E7FE0DC080E490E0A0E0B0E03A
:100D400004C08FE390E0A0E0B0E0E80EF91E0A1FB7
:100D50001B1F17FF05C016950795F794E79431966A
:100D600087E016950795F794E7948A95D1F705C023
:100D7000EE24FF248701EFEFF0E06E2F67956627E2
:100D80006795902F9F77D794DD24D7948E2F8695E3
:100D9000492F462B582F5D29B701CA011F910F918A
:100DA000FF90EF90DF900895FC01DB0140815181BD
:100DB0002281622F6F7770E0221F2227221F9381EA
:100DC000892F880F822B282F30E0991F9927991F90
:100DD00011969C93119721153105A9F541155105DF
:100DE0006105710511F482E037C082E89FEF139628
:100DF0009C938E9312979A01AB0167E0220F331FE9
:100E0000441F551F6A95D1F783E08C930DC0220FC4
:100E1000331F441F551F12968D919C911397019774
:100E200013969C938E931297203080E0380780E0D1
:100E3000480780E4580758F314962D933D934D933B
:100E40005C93179708952F3F310579F441155105AB
:100E50006105710519F484E08C93089564FF03C063
:100E600081E08C9312C01C9210C02F573040139613
:100E70003C932E93129783E08C9387E0440F551F89
:100E8000661F771F8A95D1F7706414964D935D9312
:100E90006D937C93179708951F93DC01FB019C9140
:100EA000923008F447C08081823008F443C0943007
:100EB00051F411961C91843099F58181682F70E06E
:100EC000611B71093FC0843021F0923031F48230CF
:100ED000B9F18181882389F12DC011961C91119758
:100EE0008230F1F081811817D9F412962D913C913E
:100EF0001397828193818217930794F028173907FB
:100F0000BCF014968D919D910D90BC91A02D2481E3
:100F1000358146815781281739074A075B0718F43E
:100F2000112341F00AC082179307A407B50740F4C4
:100F3000112319F061E070E005C06FEF7FEF02C090
:100F400060E070E0CB011F910895DF93CF930F9283
:100F5000CDB7DEB781E08983AAE3B0E0EAE3F0E051
:100F6000808181608C9389810F90CF91DF9108956A
:100F7000DF93CF9300D000D000D0CDB7DEB78A8307
:100F80006B834C8381E089838A81843008F0D0C0F0
:100F90008B81883008F0CCC08C81823008F0C8C0CA
:100FA0008A81282F30E03E832D836D817E816130E0
:100FB000710509F441C08D819E818230910534F420
:100FC0002D813E812115310571F0B0C06D817E818A
:100FD0006230710509F459C08D819E81833091057D
:100FE00009F47CC0A3C0AAE3B0E0EAE3F0E08081AA
:100FF000482F8B81282F30E081E090E002C0880FDD
:10100000991F2A95E2F7809584238C93AAE3B0E098
:10101000EAE3F0E08081482F8C81282F30E08B813B
:10102000882F90E0B90102C0660F771F8A95E2F71A
:10103000CB01842B8C937AC0A7E3B0E0E7E3F0E028
:101040008081482F8B81282F30E081E090E002C022
:10105000880F991F2A95E2F7809584238C93A7E344
:10106000B0E0E7E3F0E08081482F8C81282F30E06A
:101070008B81882F90E0B90102C0660F771F8A9597
:10108000E2F7CB01842B8C9351C0A4E3B0E0E4E3FE
:10109000F0E08081482F8B81282F30E081E090E0C4
:1010A00002C0880F991F2A95E2F7809584238C93BC
:1010B000A4E3B0E0E4E3F0E08081482F8C81282FA6
:1010C00030E08B81882F90E0B90102C0660F771F56
:1010D0008A95E2F7CB01842B8C9328C0A1E3B0E082
:1010E000E1E3F0E08081482F8B81282F30E081E020
:1010F00090E002C0880F991F2A95E2F7809584231B
:101100008C93A1E3B0E0E1E3F0E08081482F8C8193
:10111000282F30E08B81882F90E0B90102C0660F44
:10112000771F8A95E2F7CB01842B8C93198202C03A
:1011300082E08983898126960FB6F894DEBF0FBEC0
:10114000CDBFCF91DF910895DF93CF9300D000D032
:1011500000D0CDB7DEB78A836B834C8381E089836F
:101160008A81843008F0D3C08B81883008F0CFC0EA
:101170008C81823020F08C81823008F0C8C08A8156
:10118000282F30E03E832D836D817E816130710593
:1011900009F441C08D819E818230910534F42D8106
:1011A0003E812115310571F0B0C06D817E816230C4
:1011B000710509F459C08D819E818330910509F430
:1011C0007CC0A3C0ABE3B0E0EBE3F0E08081482F4C
:1011D0008B81282F30E081E090E002C0880F991FBA
:1011E0002A95E2F7809584238C93ABE3B0E0EBE3A0
:1011F000F0E08081482F8C81282F30E08B81882F70
:1012000090E0B90102C0660F771F8A95E2F7CB0123
:10121000842B8C937AC0A8E3B0E0E8E3F0E080810F
:10122000482F8B81282F30E081E090E002C0880FAA
:10123000991F2A95E2F7809584238C93A8E3B0E068
:10124000E8E3F0E08081482F8C81282F30E08B810B
:10125000882F90E0B90102C0660F771F8A95E2F7E8
:10126000CB01842B8C9351C0A5E3B0E0E5E3F0E023
:101270008081482F8B81282F30E081E090E002C0F0
:10128000880F991F2A95E2F7809584238C93A5E314
:10129000B0E0E5E3F0E08081482F8C81282F30E03A
:1012A0008B81882F90E0B90102C0660F771F8A9565
:1012B000E2F7CB01842B8C9328C0A2E3B0E0E2E3F9
:1012C000F0E08081482F8B81282F30E081E090E092
:1012D00002C0880F991F2A95E2F7809584238C938A
:1012E000A2E3B0E0E2E3F0E08081482F8C81282F78
:1012F00030E08B81882F90E0B90102C0660F771F24
:101300008A95E2F7CB01842B8C93198202C082E08C
:101310008983898126960FB6F894DEBF0FBECDBFB4
:10132000CF91DF910895DF93CF9300D000D00F923B
:10133000CDB7DEB78A836B8381E089838A8184306D
:1013400008F074C08B81883008F070C08A81282F23
:1013500030E03D832C838C819D818130910549F162
:101360002C813D81223031052CF48C819D810097A8
:1013700061F05AC02C813D812230310571F18C81A0
:101380009D8183309105E9F14FC0ABE3B0E0EBE321
:10139000F0E08081482F8B81282F30E081E090E0C1
:1013A000022E02C0880F991F0A94E2F784278C93BB
:1013B0003BC0A8E3B0E0E8E3F0E08081482F8B81F8
:1013C000282F30E081E090E0022E02C0880F991FA4
:1013D0000A94E2F784278C9327C0A5E3B0E0E5E305
:1013E000F0E08081482F8B81282F30E081E090E071
:1013F000022E02C0880F991F0A94E2F784278C936B
:1014000013C0A2E3B0E0E2E3F0E08081482F8B81DB
:10141000282F30E081E090E0022E02C0880F991F53
:101420000A94E2F784278C93198202C082E08983B0
:1014300089810F900F900F900F900F90CF91DF91B7
:101440000895DF93CF93CDB7DEB727970FB6F89403
:10145000DEBF0FBECDBF8A836B835D834C8381E08B
:1014600089838C819D81009709F47DC08A818430B5
:1014700008F076C08B81883008F072C08A81282FEE
:1014800030E03F832E834E815F814130510559F119
:101490008E819F818230910534F42E813F81211508
:1014A000310569F05BC04E815F814230510579F1B1
:1014B0008E819F818330910509F43DC04FC0E9E3DF
:1014C000F0E08081282F30E08B81882F90E0A90107
:1014D00002C0559547958A95E2F7CA018170EC8163
:1014E000FD8180833BC0E6E3F0E08081282F30E07F
:1014F0008B81882F90E0A90102C0559547958A9568
:10150000E2F7CA018170EC81FD81808327C0E3E3AB
:10151000F0E08081282F30E08B81882F90E0A901B6
:1015200002C0559547958A95E2F7CA018170EC8112
:10153000FD81808313C0E0E3F0E08081282F30E05C
:101540008B81882F90E0A90102C0559547958A9517
:10155000E2F7CA018170EC81FD818083198205C0A8
:1015600082E0898302C083E08983898127960FB650
:10157000F894DEBF0FBECDBFCF91DF910895DF930A
:10158000CF93CDB7DEB7E9970FB6F894DEBF0FBEA5
:10159000CDBF81E089AF80E061E041E00E94B80703
:1015A00081E062E041E00E94B80780E062E041E053
:1015B0000E94B80780E066E041E00E94B80780E042
:1015C00065E041E00E94B80780E064E041E00E94ED
:1015D000B80780E063E041E00E94B80780E090E057
:1015E000ACE0B2E48DAB9EABAFABB8AF6DA97EA95A
:1015F0008FA998AD20E030E04AE755E40E941F0231
:10160000DC01CB0189AB9AABABABBCAB69A97AA9C6
:101610008BA99CA920E030E040E85FE30E945504DC
:1016200088232CF481E090E098AB8FA73FC069A994
:101630007AA98BA99CA920E03FEF4FE757E40E94CD
:10164000F50318164CF56DA97EA98FA998AD20E079
:1016500030E040E251E40E941F02DC01CB01BC01FA
:10166000CD010E944900DC01CB0198AB8FA70FC0D0
:1016700080E991E09EA78DA78DA59EA50197F1F722
:101680009EA78DA78FA598A9019798AB8FA78FA527
:1016900098A9009769F714C069A97AA98BA99CA990
:1016A0000E944900DC01CB0198AB8FA78FA598A9B8
:1016B0009CA78BA78BA59CA50197F1F79CA78BA74F
:1016C00080E061E040E00E94A40888E20E94E60E0B
:1016D00080E090E0A0E8BFE38FA398A7A9A7BAA7EE
:1016E0006FA178A589A59AA520E030E04AE755E4E6
:1016F0000E941F02DC01CB018BA39CA3ADA3BEA360
:101700006BA17CA18DA19EA120E030E040E85FE3C9
:101710000E94550488232CF481E090E09AA389A3C9
:101720003FC06BA17CA18DA19EA120E03FEF4FE7C0
:1017300057E40E94F50318164CF56FA178A589A50A
:101740009AA520E030E040E251E40E941F02DC0153
:10175000CB01BC01CD010E944900DC01CB019AA361
:1017600089A30FC080E991E098A38F8F8F8D98A1F6
:101770000197F1F798A38F8F89A19AA101979AA356
:1017800089A389A19AA1009769F714C06BA17CA1D4
:101790008DA19EA10E944900DC01CB019AA389A3DF
:1017A00089A19AA19E8F8D8F8D8D9E8D0197F1F7C6
:1017B0009E8F8D8F80E061E040E00E94A4088FE062
:1017C0000E94E60E80E090E0A0E8BFE3898F9A8F48
:1017D000AB8FBC8F698D7A8D8B8D9C8D20E030E036
:1017E0004AE755E40E941F02DC01CB018D8B9E8BE2
:1017F000AF8BB88F6D897E898F89988D20E030E01E
:1018000040E85FE30E94550488232CF481E090E0D7
:101810009C8B8B8B3FC06D897E898F89988D20E052
:101820003FEF4FE757E40E94F50318164CF5698D1A
:101830007A8D8B8D9C8D20E030E040E251E40E9457
:101840001F02DC01CB01BC01CD010E944900DC017B
:10185000CB019C8B8B8B0FC080E991E09A8B898B9D
:1018600089899A890197F1F79A8B898B8B899C8951
:1018700001979C8B8B8B8B899C89009769F714C08F
:101880006D897E898F89988D0E944900DC01CB018A
:101890009C8B8B8B8B899C89988B8F878F85988964
:1018A0000197F1F7988B8F8780E061E040E00E941C
:1018B000A40881E00E94E60E80E090E0A0E0B0E4A1
:1018C0008B879C87AD87BE876B857C858D859E8544
:1018D00020E030E04AE755E40E941F02DC01CB0122
:1018E0008F839887A987BA876F81788589859A853C
:1018F00020E030E040E85FE30E94550488232CF4A8
:1019000081E090E09E838D833FC06F8178858985DB
:101910009A8520E03FEF4FE757E40E94F503181641
:101920004CF56B857C858D859E8520E030E040E21E
:1019300051E40E941F02DC01CB01BC01CD010E94D9
:101940004900DC01CB019E838D830FC080E991E0CB
:101950009C838B838B819C810197F1F79C838B8384
:101960008D819E8101979E838D838D819E810097BD
:1019700069F714C06F81788589859A850E9449002E
:10198000DC01CB019E838D838D819E819A83898327
:1019900089819A810197F1F79A83898380E061E0D8
:1019A00040E00E94A40886E00E94E60E89ADE99618
:1019B0000FB6F894DEBF0FBECDBFCF91DF91089573
:1019C000DF93CF9300D0CDB7DEB78A8381E08983E0
:1019D00080E061E041E00E94A4088A810E94E60E56
:1019E00089810F900F90CF91DF910895DF93CF936E
:1019F00000D0CDB7DEB78A8381E0898380E061E0E3
:101A000040E00E94A4088A810E94E60E89810F901E
:101A10000F90CF91DF910895DF93CF9300D00F9275
:101A2000CDB7DEB79B838A8381E0898310C080E0D5
:101A300061E041E00E94A408EA81FB8120818A8163
:101A40009B8101969B838A83822F0E94E60EEA8106
:101A5000FB818081882359F789810F900F900F9027
:101A6000CF91DF910895DF93CF93CDB7DEB7629723
:101A70000FB6F894DEBF0FBECDBF6F87788B898B12
:101A80009A8B81E08E871A861B861C861D861E8295
:101A90001F82188619861A821B821C821D82198257
:101AA0006F85788989899A8920E030E040E050E0AC
:101AB0000E94550488238CF480E061E041E00E949C
:101AC000A4088DE20E94E60E8F859889A989BA89BB
:101AD000B0588F87988BA98BBA8B6F857889898945
:101AE0009A8920E030E040E050E00E94C50388235E
:101AF00049F480E061E041E00E94A40880E30E9494
:101B0000E60E5AC16F85788989899A890E944900B1
:101B1000DC01CB018A879B87AC87BD876A857B8583
:101B20008C859D850E9437059B01AC016F85788966
:101B300089899A890E94C101DC01CB01BC01CD01D8
:101B400020E030E44CE156E40E941F02DC01CB01AE
:101B5000BC01CD010E944900DC01CB018E839F8333
:101B6000A887B9878A859B85AC85BD850097A10527
:101B7000B10549F480E061E041E00E94A40880E3FF
:101B80000E94E60E80C01A821B821C821D8243C006
:101B90008A819B81AC81BD812AE030E040E050E049
:101BA000BC01CD010E94D219DC01CB018A839B8349
:101BB000AC83BD838A859B85AC85BD852AE030E0FA
:101BC00040E050E0BC01CD010E94F119DC01CB01E5
:101BD0009C01AD018A819B81AC81BD81820F931FE5
:101BE000A41FB51F8A839B83AC83BD8389818F5FCC
:101BF00089838A859B85AC85BD852AE030E040E0FD
:101C000050E0BC01CD010E94F119DA01C9018A87B7
:101C10009B87AC87BD878A859B85AC85BD850097F2
:101C2000A105B10509F0B4CF2BC080E061E041E02F
:101C30000E94A4088A819B81AC81BD812AE030E0AA
:101C400040E050E0BC01CD010E94F119DC01CB0164
:101C5000805D0E94E60E8981815089838A819B8103
:101C6000AC81BD812AE030E040E050E0BC01CD0114
:101C70000E94F119DA01C9018A839B83AC83BD8379
:101C80008981882391F68E819F81A885B9850097E7
:101C9000A105B10509F490C080E061E041E00E9437
:101CA000A4088EE20E94E60E1A821B821C821D820C
:101CB00043C08A819B81AC81BD812AE030E040E055
:101CC00050E0BC01CD010E94D219DC01CB018A8316
:101CD0009B83AC83BD838E819F81A885B9852AE0D3
:101CE00030E040E050E0BC01CD010E94F119DC0180
:101CF000CB019C01AD018A819B81AC81BD81820FAA
:101D0000931FA41FB51F8A839B83AC83BD838981E6
:101D10008F5F89838E819F81A885B9852AE030E015
:101D200040E050E0BC01CD010E94F119DA01C90187
:101D30008E839F83A887B9878E819F81A885B98567
:101D40000097A105B10509F0B4CF2BC080E061E098
:101D500041E00E94A4088A819B81AC81BD812AE078
:101D600030E040E050E0BC01CD010E94F119DC01FF
:101D7000CB01805D0E94E60E8981815089838A8132
:101D80009B81AC81BD812AE030E040E050E0BC01A5
:101D9000CD010E94F119DA01C9018A839B83AC83CA
:101DA000BD838981882341F08A819B81AC81BD817B
:101DB0000097A105B10551F68E8562960FB6F8948D
:101DC000DEBF0FBECDBFCF91DF9108950F931F935C
:101DD000DF93CF93CDB7DEB7C655D0400FB6F8949A
:101DE000DEBF0FBECDBFFE01EA5AFF4F8083FE016A
:101DF000EB5AFF4F81E0808380E062E040E00E9488
:101E0000A40881E062E040E00E94A408FE01EA5AD2
:101E1000FF4F8081883209F079C1FE01EA5AFF4FF5
:101E20008081982F991F9927991F80E066E0492F9C
:101E30000E94A408FE01EA5AFF4F80818295869590
:101E400086958370982F917080E065E0492F0E94FD
:101E5000A408FE01EA5AFF4F80818295869587701B
:101E6000982F917080E064E0492F0E94A408FE0141
:101E7000EA5AFF4F808182958F70982F917080E091
:101E800063E0492F0E94A40880E062E041E00E94E4
:101E9000A408FE01EF5AFF4F80E090E0A0EAB0E412
:101EA00080839183A283B3838E01035B1F4FFE0166
:101EB000EF5AFF4F608171818281938120E030E091
:101EC0004AE755E40E941F02DC01CB01F801808340
:101ED0009183A283B383FE01E35BFF4F6081718135
:101EE0008281938120E030E040E85FE30E94550466
:101EF000882344F4FE01E55BFF4F81E090E091838D
:101F0000808364C0FE01E35BFF4F60817181828149
:101F1000938120E03FEF4FE757E40E94F503181646
:101F20000CF043C0FE01EF5AFF4F60817181828146
:101F3000938120E030E040E251E40E941F02DC0186
:101F4000CB018E01055B1F4FBC01CD010E944900F2
:101F5000DC01CB01F801918380831FC0FE01E75BA8
:101F6000FF4F80E991E091838083FE01E75BFF4FA3
:101F7000808191810197F1F7FE01E75BFF4F91832B
:101F80008083DE01A55BBF4FFE01E55BFF4F8081D3
:101F90009181019711969C938E93FE01E55BFF4F13
:101FA000808191810097D1F627C08E01055B1F4F7C
:101FB000FE01E35BFF4F60817181828193810E940A
:101FC0004900DC01CB01F80191838083DE01A95B2C
:101FD000BF4FFE01E55BFF4F808191818D939C9304
:101FE000FE01E95BFF4F808191810197F1F7FE01CE
:101FF000E95BFF4F9183808380E062E040E00E94D4
:10200000A408FE01ED5BFF4F80E090E0A0EAB0E4A1
:1020100080839183A283B3838E01015C1F4FFE01F5
:10202000ED5BFF4F608171818281938120E030E020
:102030004AE755E40E941F02DC01CB01F8018083CE
:102040009183A283B383FE01FF96608171818281B7
:10205000938120E030E040E85FE30E94550488234C
:102060002CF481E090E09EAF8DAF46C0FE01FF965C
:10207000608171818281938120E03FEF4FE757E4D7
:102080000E94F503181664F5FE01ED5BFF4F6081B9
:1020900071818281938120E030E040E251E40E942E
:1020A0001F02DC01CB01BC01CD010E944900DC0113
:1020B000CB019EAF8DAF0FC080E991E09CAF8BAF9D
:1020C0008BAD9CAD0197F1F79CAF8BAF8DAD9EAD05
:1020D00001979EAF8DAF8DAD9EAD009769F716C08D
:1020E000FE01FF9660817181828193810E94490087
:1020F000DC01CB019EAF8DAF8DAD9EAD9AAF89AFA8
:1021000089AD9AAD0197F1F79AAF89AFFE01EA5A0E
:10211000FF4F8081982F991F9927991F80E066E0D3
:10212000492F0E94A408FE01EA5AFF4F8081829540
:10213000869586958370982F917080E065E0492F91
:102140000E94A408FE01EA5AFF4F8081829586957D
:102150008770982F917080E064E0492F0E94A40856
:10216000FE01EA5AFF4F808182958F70982F9170FF
:1021700080E063E0492F0E94A40880E062E041E033
:102180000E94A40880E090E0A0EAB0E48DAB9EAB92
:10219000AFABB8AF6DA97EA98FA998AD20E030E0B4
:1021A0004AE755E40E941F02DC01CB0189AB9AABE0
:1021B000ABABBCAB69A97AA98BA99CA920E030E0A4
:1021C00040E85FE30E94550488232CF481E090E00E
:1021D00098AB8FA73FC069A97AA98BA99CA920E0D9
:1021E0003FEF4FE757E40E94F50318164CF56DA931
:1021F0007EA98FA998AD20E030E040E251E40E9432
:102200001F02DC01CB01BC01CD010E944900DC01B1
:10221000CB0198AB8FA70FC080E991E09EA78DA757
:102220008DA59EA50197F1F79EA78DA78FA598A9CB
:10223000019798AB8FA78FA598A9009769F714C04D
:1022400069A97AA98BA99CA90E944900DC01CB014C
:1022500098AB8FA78FA598A99CA78BA78BA59CA5AA
:102260000197F1F79CA78BA780E062E040E00E9415
:10227000A40880E090E0A0EAB0E48FA398A7A9A703
:10228000BAA76FA178A589A59AA520E030E04AE712
:1022900055E40E941F02DC01CB018BA39CA3ADA3DC
:1022A000BEA36BA17CA18DA19EA120E030E040E8FF
:1022B0005FE30E94550488232CF481E090E09AA308
:1022C00089A33FC06BA17CA18DA19EA120E03FEF1F
:1022D0004FE757E40E94F50318164CF56FA178A557
:1022E00089A59AA520E030E040E251E40E941F0257
:1022F000DC01CB01BC01CD010E944900DC01CB0116
:102300009AA389A30FC080E991E098A38F8F8F8D46
:1023100098A10197F1F798A38F8F89A19AA10197AE
:102320009AA389A389A19AA1009769F714C06BA108
:102330007CA18DA19EA10E944900DC01CB019AA342
:1023400089A389A19AA19E8F8D8F8D8D9E8D0197D6
:10235000F1F79E8F8D8FFE01EA5AFF4F808186959F
:1023600086958695982F917080E066E0492F0E94AF
:10237000A408FE01EA5AFF4F808186958695982F22
:10238000917080E065E0492F0E94A408FE01EA5A9E
:10239000FF4F80818695982F917080E064E0492FEF
:1023A0000E94A408FE01EA5AFF4F8081982F917085
:1023B00080E063E0492F0E94A40880E062E041E0F1
:1023C0000E94A40880E090E0A0EAB0E4898F9A8F90
:1023D000AB8FBC8F698D7A8D8B8D9C8D20E030E02A
:1023E0004AE755E40E941F02DC01CB018D8B9E8BD6
:1023F000AF8BB88F6D897E898F89988D20E030E012
:1024000040E85FE30E94550488232CF481E090E0CB
:102410009C8B8B8B3FC06D897E898F89988D20E046
:102420003FEF4FE757E40E94F50318164CF5698D0E
:102430007A8D8B8D9C8D20E030E040E251E40E944B
:102440001F02DC01CB01BC01CD010E944900DC016F
:10245000CB019C8B8B8B0FC080E991E09A8B898B91
:1024600089899A890197F1F79A8B898B8B899C8945
:1024700001979C8B8B8B8B899C89009769F714C083
:102480006D897E898F89988D0E944900DC01CB017E
:102490009C8B8B8B8B899C89988B8F878F85988958
:1024A0000197F1F7988B8F8780E062E040E00E940F
:1024B000A40880E090E0A0EAB0E48B879C87AD8719
:1024C000BE876B857C858D859E8520E030E04AE760
:1024D00055E40E941F02DC01CB018F839887A987F6
:1024E000BA876F81788589859A8520E030E040E859
:1024F0005FE30E94550488232CF481E090E09E83E2
:102500008D833FC06F81788589859A8520E03FEF74
:102510004FE757E40E94F50318164CF56B857C8550
:102520008D859E8520E030E040E251E40E941F024C
:10253000DC01CB01BC01CD010E944900DC01CB01D3
:102540009E838D830FC080E991E09C838B838B8178
:102550009C810197F1F79C838B838D819E810197EC
:102560009E838D838D819E81009769F714C06F8152
:10257000788589859A850E944900DC01CB019E837C
:102580008D838D819E819A83898389819A81019728
:10259000F1F79A838983FE01EB5AFF4F8081CA5A73
:1025A000DF4F0FB6F894DEBF0FBECDBFCF91DF91E6
:1025B0001F910F910895DF93CF930F92CDB7DEB7A0
:1025C00081E0898383E062E041E00E94B80783E014
:1025D00063E041E00E94B80783E064E041E00E94CC
:1025E000B80783E065E041E00E94B80781E064E05D
:1025F00040E00E94B80781E065E040E00E94B80733
:1026000081E066E040E00E94B80781E067E040E0DA
:102610000E94B80783E062E041E00E94A40883E0E2
:1026200063E041E00E94A40883E064E041E00E948E
:10263000A40883E065E041E00E94A40881E064E032
:1026400041E00E94A40881E065E041E00E94A40806
:1026500081E066E041E00E94A40881E067E041E09B
:102660000E94A40889810F90CF91DF910895DF9394
:10267000CF93CDB7DEB7EA970FB6F894DEBF0FBEA3
:10268000CDBF9DAB8CAB81E08A8B81E08B8B81E0F1
:102690008C8B81E08D8B81E08E8B83E08F8B83E050
:1026A000888F83E0898F83E08A8F84E08B8F85E039
:1026B0008C8F86E08D8F87E08E8F82E08F8F83E016
:1026C00088A384E089A385E08AA3198A188A8FEFFA
:1026D0008BA38FEF8F87188A3BC18889282F30E022
:1026E000CE014796FC01E20FF31F40818889282F15
:1026F00030E0CE014F96FC01E20FF31F9081842F52
:10270000692F40E00E94A408198A04C18989282FF2
:1027100030E0CE014396FC01E20FF31F408189892E
:10272000282F30E0CE014B96FC01E20FF31F908181
:102730009E012D5D3F4F842F692FA9010E94210A20
:102740008BA1882309F0E3C080E090E0A0E2B1E42F
:102750008B879C87AD87BE876B857C858D859E85A5
:1027600020E030E04AE755E40E941F02DC01CB0183
:102770008F839887A987BA876F81788589859A859D
:1027800020E030E040E85FE30E94550488232CF409
:1027900081E090E09E838D833FC06F81788589853D
:1027A0009A8520E03FEF4FE757E40E94F5031816A3
:1027B0004CF56B857C858D859E8520E030E040E280
:1027C00051E40E941F02DC01CB01BC01CD010E943B
:1027D0004900DC01CB019E838D830FC080E991E02D
:1027E0009C838B838B819C810197F1F79C838B83E6
:1027F0008D819E8101979E838D838D819E8100971F
:1028000069F714C06F81788589859A850E9449008F
:10281000DC01CB019E838D838D819E819A83898388
:1028200089819A810197F1F79A8389838989282F71
:1028300030E0CE014396FC01E20FF31F408189890D
:10284000282F30E0CE014B96FC01E20FF31F908160
:102850009E012D5D3F4F842F692FA9010E94210AFF
:102860008BA1882309F053C01AC08989282F30E032
:10287000CE014396FC01E20FF31F40818989282F86
:1028800030E0CE014B96FC01E20FF31F90819E01D8
:102890002D5D3F4F842F692FA9010E94210A8BA132
:1028A000882319F3CE0184969FAB8EABEAE8F1E062
:1028B000F9AFE8AFF0E1FAAFE8ADF9AD008088AD6F
:1028C00099AD019699AF88AFEEA9FFA900828EA9B4
:1028D0009FA901969FAB8EAB9AAD91509AAFEAAD8E
:1028E000EE2351F78989282F30E08889482F50E05E
:1028F000220F331F220F331FCE010196820F931F29
:10290000840F951FFC01B39680818F871A8A89896D
:102910008F5F898B8989843008F4F8CE8889282FC5
:1029200030E0CE014796FC01E20FF31F4081888919
:10293000282F30E0CE014F96FC01E20FF31F90816B
:10294000842F692F41E00E94A40888898F5F888BBB
:102950008889843008F4C1CEECA9FDA98F858083D5
:102960008A89EA960FB6F894DEBF0FBECDBFCF912D
:10297000DF910895CF92DF92EF92FF920F931F9312
:10298000DF93CF93CDB7DEB7A1970FB6F894DEBF34
:102990000FBECDBF0E94DB120E94BF0A81EA91E008
:1029A0000E94371380919F01882321F48091A70111
:1029B000843128F08DE38093A10110929F018091D2
:1029C000A1018F3F59F380919C01882309F43EC0F7
:1029D0008091A101883761F08091A1018F3241F08F
:1029E0008091A1018B3221F08091A1018D3221F5DE
:1029F0000E9477198091AD01882F90E02091A3016A
:102A00003091A4014091A5015091A601880F991F12
:102A1000880F991FFC01E255FE4F208331834283CA
:102A2000538380E690E00E940C0D83E08093A70121
:102A300081E080939B010AC08091A101803330F036
:102A40008091A1018A3310F40E9477198091A1012D
:102A5000282F30E039A328A388A199A18A339105B2
:102A6000C4F428A139A12033310544F588A199A1E6
:102A70008D32910509F41AC128A139A12F323105EF
:102A800009F4BEC188A199A18B32910509F4BFC098
:102A900005C328A139A12334310569F088A199A182
:102AA0008837910509F45DC128A139A12D3331057D
:102AB00009F4F5C1F3C20E947719F0C28091AD010B
:102AC000082F10E08091AD01882F90E0880F991FAA
:102AD000880F991FFC01E255FE4F80819181A281F0
:102AE000B381BC01CD0120E030E040E251E40E941E
:102AF0001F02DC01CB019C01AD01C801880F991FA9
:102B0000880F991FFC01E255FE4F208331834283D9
:102B1000538380919A018130D1F58091AD01C82E07
:102B2000DD248091AD01882F90E0880F991F880FD8
:102B3000991FFC01E255FE4FE080F1800281138174
:102B40008091A101282F30E080E390E0821B930B5D
:102B5000AA2797FDA095BA2FBC01CD010E9485043C
:102B60009B01AC01C801B7010E94F201DC01CB015D
:102B70009C01AD01C601880F991F880F991FFC01A8
:102B8000E255FE4F208331834283538336C08091C8
:102B9000AD01C82EDD248091AD01882F90E0880F13
:102BA000991F880F991FFC01E255FE4FE080F180CC
:102BB000028113818091A101882F90E0C097AA27FC
:102BC00097FDA095BA2FBC01CD010E9485049B0101
:102BD000AC01C801B7010E94F201DC01CB019C01EC
:102BE000AD01C601880F991F880F991FFC01E2559E
:102BF000FE4F208331834283538381E080939B0186
:102C00000E94C4198091A1010E94E00C47C28091EA
:102C10009B01882329F18091A201853021F481E074
:102C200080939F013BC210929A012091A201822FB2
:102C300090E0FC01E855FE4F8AE08083822F8F5F91
:102C40008093A2018091AD018F5F8093AD011092BE
:102C50009B010E94C4198091A1010E94E00C1EC238
:102C60008091A70181508093A7018091A201882FB4
:102C700090E00197FC01E855FE4F8AE0808380E1F7
:102C80000E94F60C80919A01882359F080E10E94FD
:102C9000F60C8091A1010E94E00C84E10E94F60CE8
:102CA000FDC18091A1010E94E00CF8C180919B01BF
:102CB000882329F18091A201853021F481E080935D
:102CC0009F01ECC110929A012091A201822F90E005
:102CD000FC01E855FE4F84E18083822F8F5F809353
:102CE000A2018091AD018F5F8093AD0110929B0195
:102CF0000E94C4198091A1010E94E00CCFC1809173
:102D00009A018823E9F08091A70181508093A7015F
:102D10008091A201882F90E00197FC01E855FE4FB9
:102D200084E1808380E10E94F60C80E10E94F60C31
:102D30008091A1010E94E00C84E10E94F60CAEC1DA
:102D400080919A01882309F0A9C181E080939A01BA
:102D500010929B010E94C4198091A1010E94E00C75
:102D60009DC180919B01882329F18091A20185302A
:102D700021F481E080939F0191C110929A012091EA
:102D8000A201822F90E0FC01E855FE4F88E280838B
:102D9000822F8F5F8093A2018091AD018F5F80931E
:102DA000AD0110929B010E94C4198091A1010E9463
:102DB000E00C74C18091A70181508093A70180919C
:102DC000A201882F90E00197FC01E855FE4F88E2B0
:102DD000808380E10E94F60C80919A01882359F04B
:102DE00080E10E94F60C8091A1010E94E00C84E138
:102DF0000E94F60C53C18091A1010E94E00C4EC1CB
:102E000080919B01882329F18091A201853021F4D2
:102E100081E080939F0142C110929A012091A2010A
:102E2000822F90E0FC01E855FE4F8EE18083822FD7
:102E30008F5F8093A2018091AD018F5F8093AD0180
:102E400010929B010E94C4198091A1010E94E00C84
:102E500025C18091A70181508093A7018091A20193
:102E6000882F90E00197FC01E855FE4F8EE18083AA
:102E700080E10E94F60C80919A01882359F080E14C
:102E80000E94F60C8091A1010E94E00C84E10E9456
:102E9000F60C04C18091A1010E94E00CFFC080915A
:102EA000AE019091AF01A091B001B091B1018093BA
:102EB000A3019093A401A093A501B093A6011D8E38
:102EC0001D8EE0C08D8D882F90E0FC01E855FE4FEF
:102ED0008081282F30E03F8F2E8F8E8D9F8D843103
:102EE000910509F43EC02E8D3F8D2531310534F416
:102EF0008E8D9F8D8A30910571F0C1C02E8D3F8DD2
:102F00002E31310509F479C08E8D9F8D883291055F
:102F100009F44DC0B4C08D8D882F90E00196880FC4
:102F2000991F880F991FFC01E255FE4F8081918106
:102F3000A281B3812091A3013091A4014091A50108
:102F40005091A601BC01CD010E94F201DC01CB0130
:102F50008093A3019093A401A093A501B093A6012F
:102F60008EC0E090A301F090A4010091A501109102
:102F7000A6018D8D882F90E00196880F991F880FEC
:102F8000991FFC01E255FE4F20813181428153811E
:102F9000C801B7010E94C101DC01CB018093A301EC
:102FA0009093A401A093A501B093A60168C08D8D54
:102FB000882F90E00196880F991F880F991FFC01B8
:102FC000E255FE4F80819181A281B3812091A301BE
:102FD0003091A4014091A5015091A601BC01CD0101
:102FE0000E941F02DC01CB018093A3019093A401F6
:102FF000A093A501B093A60142C08D8D882F90E0CB
:103000000196880F991F880F991FFC01E255FE4F0A
:1030100080819181A281B381BC01CD0120E030E0AB
:1030200040E050E00E94C503882321F481E08093B2
:103030009E0125C0E090A301F090A4010091A5019C
:103040001091A6018D8D882F90E00196880F991F11
:10305000880F991FFC01E255FE4F2081318142818A
:103060005381C801B7010E941903DC01CB01809391
:10307000A3019093A401A093A501B093A6018D8D07
:103080008F5F8D8F9091A2018D8D891708F41ACFD3
:1030900081E080939C0181E080939D018091A70154
:1030A0008F5F8093A70180919D01882309F476CCDE
:1030B00080EC0E94F60C80919E01882309F479C06F
:1030C00084E690E00E940C0D80E090E0AAE7B4E472
:1030D000898F9A8FAB8FBC8F698D7A8D8B8D9C8DEC
:1030E00020E030E04AE755E40E941F02DC01CB01FA
:1030F0008D8B9E8BAF8BB88F6D897E898F89988DD4
:1031000020E030E040E85FE30E94550488232CF47F
:1031100081E090E09C8B8B8B3FC06D897E898F898D
:10312000988D20E03FEF4FE757E40E94F503181613
:103130004CF5698D7A8D8B8D9C8D20E030E040E2DE
:1031400051E40E941F02DC01CB01BC01CD010E94B1
:103150004900DC01CB019C8B8B8B0FC080E991E097
:103160009A8B898B89899A890197F1F79A8B898B38
:103170008B899C8901979C8B8B8B8B899C89009771
:1031800069F714C06D897E898F89988D0E944900E6
:10319000DC01CB019C8B8B8B8B899C89988B8F87D7
:1031A0008F8598890197F1F7988B8F870E947719FF
:1031B000F5CB80919B01882309F079C081E790E0ED
:1031C0000E940C0D80E090E0AAE7B4E48B879C8716
:1031D000AD87BE876B857C858D859E8520E030E040
:1031E0004AE755E40E941F02DC01CB018F839887D8
:1031F000A987BA876F81788589859A8520E030E034
:1032000040E85FE30E94550488232CF481E090E0BD
:103210009E838D833FC06F81788589859A8520E064
:103220003FEF4FE757E40E94F50318164CF56B8506
:103230007C858D859E8520E030E040E251E40E944F
:103240001F02DC01CB01BC01CD010E944900DC0161
:10325000CB019E838D830FC080E991E09C838B839B
:103260008B819C810197F1F79C838B838D819E815B
:1032700001979E838D838D819E81009769F714C08D
:103280006F81788589859A850E944900DC01CB0190
:103290009E838D838D819E819A83898389819A8182
:1032A0000197F1F79A8389830E94771977CB8091F0
:1032B000A701803168F008C08CE10E94F60C809173
:1032C000A70181508093A7018091A7018231A0F7C7
:1032D0008091A3019091A401A091A501B091A601B4
:1032E000BC01CD010E94330D10929D0157CBDF939D
:1032F000CF930F92CDB7DEB7198281E00E94F60C12
:1033000080E80E94F60C19820AC08981882F90E01B
:10331000FC01E855FE4F108289818F5F8983898186
:10332000853098F3198215C08981882F90E0880F25
:10333000991F880F991FFC01E255FE4F80E090E035
:10334000A0E0B0E080839183A283B38389818F5F03
:1033500089838981863040F31092A2011092AD01D9
:1033600010929A0110929B0110929C0110929D0163
:1033700010929E0110929F011092A0011092A7013D
:103380000F90CF91DF910895DF93CF93CDB7DEB744
:103390008091A701803118F088E10E94F60CCF914E
:1033A000DF910895629FD001739FF001829FE00D2D
:1033B000F11D649FE00DF11D929FF00D839FF00DB4
:1033C000749FF00D659FF00D9927729FB00DE11D60
:1033D000F91F639FB00DE11DF91FBD01CF0111243D
:1033E0000895A1E21A2EAA1BBB1BFD010DC0AA1F46
:1033F000BB1FEE1FFF1FA217B307E407F50720F05E
:10340000A21BB30BE40BF50B661F771F881F991FD8
:103410001A9469F760957095809590959B01AC0121
:10342000BD01CF0108952F923F924F925F926F920C
:103430007F928F929F92AF92BF92CF92DF92EF9244
:10344000FF920F931F93CF93DF93CDB7DEB7CA1BC5
:10345000DB0B0FB6F894DEBF0FBECDBF09942A88F0
:10346000398848885F846E847D848C849B84AA8498
:10347000B984C884DF80EE80FD800C811B81AA8125
:10348000B981CE0FD11D0FB6F894DEBF0FBECDBFF0
:08349000ED010895F894FFCF4F
:10349800414E53004572725F44697620427920306C
:1034A800004572725F4D697373696E67204F707261
:1034B8006400000000000000000000010202030395
:1034C80003030404040404040404050505050505B0
:1034D800050505050505050505050606060606068E
:1034E8000606060606060606060606060606060674
:1034F800060606060606060606060707070707075E
:103508000707070707070707070707070707070743
:103518000707070707070707070707070707070733
:103528000707070707070707070707070707070723
:10353800070707070707070707070808080808080D
:1035480008080808080808080808080808080808F3
:1035580008080808080808080808080808080808E3
:1035680008080808080808080808080808080808D3
:1035780008080808080808080808080808080808C3
:1035880008080808080808080808080808080808B3
:1035980008080808080808080808080808080808A3
:1035A8000808080808080808080808080808080893
:1035B800080808080808080808083738392F343573
:0A35C80036783132332D43303D2BAD
:00000001FF
